{
  "_format": "hh-sol-artifact-1",
  "contractName": "NeoVaultAggregator",
  "sourceName": "contracts/NeoVaultAggregator.sol",
  "abi": [
    {
      "inputs": [
        {
          "internalType": "address[]",
          "name": "_strategies",
          "type": "address[]"
        },
        {
          "internalType": "address",
          "name": "_oracle",
          "type": "address"
        },
        {
          "internalType": "address",
          "name": "_feesManager",
          "type": "address"
        },
        {
          "internalType": "address",
          "name": "_underlying",
          "type": "address"
        }
      ],
      "stateMutability": "nonpayable",
      "type": "constructor"
    },
    {
      "inputs": [
        {
          "internalType": "address",
          "name": "newStrategy",
          "type": "address"
        }
      ],
      "name": "addStrategy",
      "outputs": [],
      "stateMutability": "nonpayable",
      "type": "function"
    },
    {
      "inputs": [],
      "name": "currentStrategy",
      "outputs": [
        {
          "internalType": "address",
          "name": "",
          "type": "address"
        }
      ],
      "stateMutability": "view",
      "type": "function"
    },
    {
      "inputs": [
        {
          "internalType": "uint256",
          "name": "amount",
          "type": "uint256"
        }
      ],
      "name": "deposit",
      "outputs": [],
      "stateMutability": "nonpayable",
      "type": "function"
    },
    {
      "inputs": [],
      "name": "feeRecipient",
      "outputs": [
        {
          "internalType": "address",
          "name": "",
          "type": "address"
        }
      ],
      "stateMutability": "view",
      "type": "function"
    },
    {
      "inputs": [],
      "name": "feesManager",
      "outputs": [
        {
          "internalType": "contract IFeesManager",
          "name": "",
          "type": "address"
        }
      ],
      "stateMutability": "view",
      "type": "function"
    },
    {
      "inputs": [],
      "name": "getBestStrategy",
      "outputs": [
        {
          "internalType": "address",
          "name": "best",
          "type": "address"
        }
      ],
      "stateMutability": "view",
      "type": "function"
    },
    {
      "inputs": [],
      "name": "lastVaultBalance",
      "outputs": [
        {
          "internalType": "uint256",
          "name": "",
          "type": "uint256"
        }
      ],
      "stateMutability": "view",
      "type": "function"
    },
    {
      "inputs": [],
      "name": "oracle",
      "outputs": [
        {
          "internalType": "contract IOracle",
          "name": "",
          "type": "address"
        }
      ],
      "stateMutability": "view",
      "type": "function"
    },
    {
      "inputs": [],
      "name": "owner",
      "outputs": [
        {
          "internalType": "address",
          "name": "",
          "type": "address"
        }
      ],
      "stateMutability": "view",
      "type": "function"
    },
    {
      "inputs": [],
      "name": "rebalance",
      "outputs": [],
      "stateMutability": "nonpayable",
      "type": "function"
    },
    {
      "inputs": [
        {
          "internalType": "address",
          "name": "_recipient",
          "type": "address"
        }
      ],
      "name": "setFeeRecipient",
      "outputs": [],
      "stateMutability": "nonpayable",
      "type": "function"
    },
    {
      "inputs": [
        {
          "internalType": "address",
          "name": "",
          "type": "address"
        }
      ],
      "name": "shares",
      "outputs": [
        {
          "internalType": "uint256",
          "name": "",
          "type": "uint256"
        }
      ],
      "stateMutability": "view",
      "type": "function"
    },
    {
      "inputs": [
        {
          "internalType": "uint256",
          "name": "",
          "type": "uint256"
        }
      ],
      "name": "strategies",
      "outputs": [
        {
          "internalType": "address",
          "name": "",
          "type": "address"
        }
      ],
      "stateMutability": "view",
      "type": "function"
    },
    {
      "inputs": [],
      "name": "totalShares",
      "outputs": [
        {
          "internalType": "uint256",
          "name": "",
          "type": "uint256"
        }
      ],
      "stateMutability": "view",
      "type": "function"
    },
    {
      "inputs": [],
      "name": "underlying",
      "outputs": [
        {
          "internalType": "contract IERC20",
          "name": "",
          "type": "address"
        }
      ],
      "stateMutability": "view",
      "type": "function"
    },
    {
      "inputs": [],
      "name": "vaultBalance",
      "outputs": [
        {
          "internalType": "uint256",
          "name": "",
          "type": "uint256"
        }
      ],
      "stateMutability": "view",
      "type": "function"
    },
    {
      "inputs": [
        {
          "internalType": "uint256",
          "name": "shareAmount",
          "type": "uint256"
        }
      ],
      "name": "withdraw",
      "outputs": [],
      "stateMutability": "nonpayable",
      "type": "function"
    }
  ],
  "bytecode": "0x60a060405234801561001057600080fd5b50604051611fa7380380611fa783398181016040528101906100329190610416565b336000806101000a81548173ffffffffffffffffffffffffffffffffffffffff021916908373ffffffffffffffffffffffffffffffffffffffff16021790555083600190805190602001906100889291906101a4565b5082600360006101000a81548173ffffffffffffffffffffffffffffffffffffffff021916908373ffffffffffffffffffffffffffffffffffffffff16021790555081600460006101000a81548173ffffffffffffffffffffffffffffffffffffffff021916908373ffffffffffffffffffffffffffffffffffffffff1602179055508073ffffffffffffffffffffffffffffffffffffffff1660808173ffffffffffffffffffffffffffffffffffffffff16815250508360008151811061015357610152610499565b5b6020026020010151600260006101000a81548173ffffffffffffffffffffffffffffffffffffffff021916908373ffffffffffffffffffffffffffffffffffffffff160217905550505050506104c8565b82805482825590600052602060002090810192821561021d579160200282015b8281111561021c5782518260006101000a81548173ffffffffffffffffffffffffffffffffffffffff021916908373ffffffffffffffffffffffffffffffffffffffff160217905550916020019190600101906101c4565b5b50905061022a919061022e565b5090565b5b8082111561024757600081600090555060010161022f565b5090565b6000604051905090565b600080fd5b600080fd5b600080fd5b6000601f19601f8301169050919050565b7f4e487b7100000000000000000000000000000000000000000000000000000000600052604160045260246000fd5b6102ad82610264565b810181811067ffffffffffffffff821117156102cc576102cb610275565b5b80604052505050565b60006102df61024b565b90506102eb82826102a4565b919050565b600067ffffffffffffffff82111561030b5761030a610275565b5b602082029050602081019050919050565b600080fd5b600073ffffffffffffffffffffffffffffffffffffffff82169050919050565b600061034c82610321565b9050919050565b61035c81610341565b811461036757600080fd5b50565b60008151905061037981610353565b92915050565b600061039261038d846102f0565b6102d5565b905080838252602082019050602084028301858111156103b5576103b461031c565b5b835b818110156103de57806103ca888261036a565b8452602084019350506020810190506103b7565b5050509392505050565b600082601f8301126103fd576103fc61025f565b5b815161040d84826020860161037f565b91505092915050565b600080600080608085870312156104305761042f610255565b5b600085015167ffffffffffffffff81111561044e5761044d61025a565b5b61045a878288016103e8565b945050602061046b8782880161036a565b935050604061047c8782880161036a565b925050606061048d8782880161036a565b91505092959194509250565b7f4e487b7100000000000000000000000000000000000000000000000000000000600052603260045260246000fd5b608051611a93610514600039600081816107130152818161096b015281816109f801528181610b4501528181610ca901528181610db901528181610ff101526110920152611a936000f3fe608060405234801561001057600080fd5b506004361061010a5760003560e01c80636a1ceb2d116100a25780638da5cb5b116100715780638da5cb5b1461025f578063b6b55f251461027d578063ce7c2ac214610299578063d574ea3d146102c9578063e74b981b146102f95761010a565b80636a1ceb2d146101fb5780636f307dc3146102195780637d7c2a1c146102375780637dc0d1d0146102415761010a565b80632e1a7d4d116100de5780632e1a7d4d14610185578063358b1c27146101a15780633a98ef39146101bf57806346904840146101dd5761010a565b8062c13a9d1461010f57806305a9e0731461012d5780630bf6cc081461014b578063223e547914610169575b600080fd5b610117610315565b60405161012491906113a1565b60405180910390f35b61013561031b565b604051610142919061143b565b60405180910390f35b610153610341565b60405161016091906113a1565b60405180910390f35b610183600480360381019061017e9190611499565b610438565b005b61019f600480360381019061019a91906114f2565b61052c565b005b6101a96107c2565b6040516101b6919061152e565b60405180910390f35b6101c7610917565b6040516101d491906113a1565b60405180910390f35b6101e561091d565b6040516101f2919061152e565b60405180910390f35b610203610943565b604051610210919061152e565b60405180910390f35b610221610969565b60405161022e919061156a565b60405180910390f35b61023f61098d565b005b610249610f19565b60405161025691906115a6565b60405180910390f35b610267610f3f565b604051610274919061152e565b60405180910390f35b610297600480360381019061029291906114f2565b610f63565b005b6102b360048036038101906102ae9190611499565b61125f565b6040516102c091906113a1565b60405180910390f35b6102e360048036038101906102de91906114f2565b611277565b6040516102f0919061152e565b60405180910390f35b610313600480360381019061030e9190611499565b6112b6565b005b60085481565b600460009054906101000a900473ffffffffffffffffffffffffffffffffffffffff1681565b60008073ffffffffffffffffffffffffffffffffffffffff16600260009054906101000a900473ffffffffffffffffffffffffffffffffffffffff1673ffffffffffffffffffffffffffffffffffffffff16036103a15760009050610435565b600260009054906101000a900473ffffffffffffffffffffffffffffffffffffffff1673ffffffffffffffffffffffffffffffffffffffff1663b69ef8a86040518163ffffffff1660e01b8152600401602060405180830381865afa15801561040e573d6000803e3d6000fd5b505050506040513d601f19601f8201168201806040525081019061043291906115d6565b90505b90565b60008054906101000a900473ffffffffffffffffffffffffffffffffffffffff1673ffffffffffffffffffffffffffffffffffffffff163373ffffffffffffffffffffffffffffffffffffffff16146104c6576040517f08c379a00000000000000000000000000000000000000000000000000000000081526004016104bd90611660565b60405180910390fd5b6001819080600181540180825580915050600190039060005260206000200160009091909190916101000a81548173ffffffffffffffffffffffffffffffffffffffff021916908373ffffffffffffffffffffffffffffffffffffffff16021790555050565b6000811161056f576040517f08c379a0000000000000000000000000000000000000000000000000000000008152600401610566906116cc565b60405180910390fd5b80600660003373ffffffffffffffffffffffffffffffffffffffff1673ffffffffffffffffffffffffffffffffffffffff1681526020019081526020016000205410156105f1576040517f08c379a00000000000000000000000000000000000000000000000000000000081526004016105e890611738565b60405180910390fd5b6000600754826105ff610341565b6106099190611787565b61061391906117f8565b905081600660003373ffffffffffffffffffffffffffffffffffffffff1673ffffffffffffffffffffffffffffffffffffffff16815260200190815260200160002060008282546106649190611829565b92505081905550816007600082825461067d9190611829565b92505081905550600260009054906101000a900473ffffffffffffffffffffffffffffffffffffffff1673ffffffffffffffffffffffffffffffffffffffff16632e1a7d4d826040518263ffffffff1660e01b81526004016106df91906113a1565b600060405180830381600087803b1580156106f957600080fd5b505af115801561070d573d6000803e3d6000fd5b505050507f000000000000000000000000000000000000000000000000000000000000000073ffffffffffffffffffffffffffffffffffffffff1663a9059cbb33836040518363ffffffff1660e01b815260040161076c92919061185d565b6020604051808303816000875af115801561078b573d6000803e3d6000fd5b505050506040513d601f19601f820116820180604052508101906107af91906118be565b506107b8610341565b6008819055505050565b6000806000905060005b600180549050811015610912576000600360009054906101000a900473ffffffffffffffffffffffffffffffffffffffff1673ffffffffffffffffffffffffffffffffffffffff1663c4f9870b6001848154811061082d5761082c6118eb565b5b9060005260206000200160009054906101000a900473ffffffffffffffffffffffffffffffffffffffff166040518263ffffffff1660e01b8152600401610874919061152e565b602060405180830381865afa158015610891573d6000803e3d6000fd5b505050506040513d601f19601f820116820180604052508101906108b591906115d6565b90508281111561090457809250600182815481106108d6576108d56118eb565b5b9060005260206000200160009054906101000a900473ffffffffffffffffffffffffffffffffffffffff1693505b5080806001019150506107cc565b505090565b60075481565b600560009054906101000a900473ffffffffffffffffffffffffffffffffffffffff1681565b600260009054906101000a900473ffffffffffffffffffffffffffffffffffffffff1681565b7f000000000000000000000000000000000000000000000000000000000000000081565b60006109976107c2565b9050600260009054906101000a900473ffffffffffffffffffffffffffffffffffffffff1673ffffffffffffffffffffffffffffffffffffffff168173ffffffffffffffffffffffffffffffffffffffff16036109f45750610f17565b60007f000000000000000000000000000000000000000000000000000000000000000073ffffffffffffffffffffffffffffffffffffffff166370a08231600260009054906101000a900473ffffffffffffffffffffffffffffffffffffffff166040518263ffffffff1660e01b8152600401610a71919061152e565b602060405180830381865afa158015610a8e573d6000803e3d6000fd5b505050506040513d601f19601f82011682018060405250810190610ab291906115d6565b9050600260009054906101000a900473ffffffffffffffffffffffffffffffffffffffff1673ffffffffffffffffffffffffffffffffffffffff16632e1a7d4d826040518263ffffffff1660e01b8152600401610b0f91906113a1565b600060405180830381600087803b158015610b2957600080fd5b505af1158015610b3d573d6000803e3d6000fd5b5050505060007f000000000000000000000000000000000000000000000000000000000000000073ffffffffffffffffffffffffffffffffffffffff166370a08231306040518263ffffffff1660e01b8152600401610b9c919061152e565b602060405180830381865afa158015610bb9573d6000803e3d6000fd5b505050506040513d601f19601f82011682018060405250810190610bdd91906115d6565b90506000600854821115610bfc5760085482610bf99190611829565b90505b6000600460009054906101000a900473ffffffffffffffffffffffffffffffffffffffff1673ffffffffffffffffffffffffffffffffffffffff1663a969ff0a836040518263ffffffff1660e01b8152600401610c5991906113a1565b6020604051808303816000875af1158015610c78573d6000803e3d6000fd5b505050506040513d601f19601f82011682018060405250810190610c9c91906115d6565b90506000811115610da7577f000000000000000000000000000000000000000000000000000000000000000073ffffffffffffffffffffffffffffffffffffffff1663a9059cbb600560009054906101000a900473ffffffffffffffffffffffffffffffffffffffff16836040518363ffffffff1660e01b8152600401610d2492919061185d565b6020604051808303816000875af1158015610d43573d6000803e3d6000fd5b505050506040513d601f19601f82011682018060405250810190610d6791906118be565b610da6576040517f08c379a0000000000000000000000000000000000000000000000000000000008152600401610d9d90611966565b60405180910390fd5b5b60008184610db59190611829565b90507f000000000000000000000000000000000000000000000000000000000000000073ffffffffffffffffffffffffffffffffffffffff1663095ea7b387836040518363ffffffff1660e01b8152600401610e1292919061185d565b6020604051808303816000875af1158015610e31573d6000803e3d6000fd5b505050506040513d601f19601f82011682018060405250810190610e5591906118be565b508573ffffffffffffffffffffffffffffffffffffffff1663b6b55f25826040518263ffffffff1660e01b8152600401610e8f91906113a1565b600060405180830381600087803b158015610ea957600080fd5b505af1158015610ebd573d6000803e3d6000fd5b5050505085600260006101000a81548173ffffffffffffffffffffffffffffffffffffffff021916908373ffffffffffffffffffffffffffffffffffffffff160217905550610f0a610341565b6008819055505050505050505b565b600360009054906101000a900473ffffffffffffffffffffffffffffffffffffffff1681565b60008054906101000a900473ffffffffffffffffffffffffffffffffffffffff1681565b60008111610fa6576040517f08c379a0000000000000000000000000000000000000000000000000000000008152600401610f9d906119d2565b60405180910390fd5b6000806007541480610fbf57506000610fbd610341565b145b15610fcc57819050610fef565b610fd4610341565b60075483610fe29190611787565b610fec91906117f8565b90505b7f000000000000000000000000000000000000000000000000000000000000000073ffffffffffffffffffffffffffffffffffffffff166323b872dd3330856040518463ffffffff1660e01b815260040161104c939291906119f2565b6020604051808303816000875af115801561106b573d6000803e3d6000fd5b505050506040513d601f19601f8201168201806040525081019061108f91906118be565b507f000000000000000000000000000000000000000000000000000000000000000073ffffffffffffffffffffffffffffffffffffffff1663095ea7b3600260009054906101000a900473ffffffffffffffffffffffffffffffffffffffff16846040518363ffffffff1660e01b815260040161110d92919061185d565b6020604051808303816000875af115801561112c573d6000803e3d6000fd5b505050506040513d601f19601f8201168201806040525081019061115091906118be565b50600260009054906101000a900473ffffffffffffffffffffffffffffffffffffffff1673ffffffffffffffffffffffffffffffffffffffff1663b6b55f25836040518263ffffffff1660e01b81526004016111ac91906113a1565b600060405180830381600087803b1580156111c657600080fd5b505af11580156111da573d6000803e3d6000fd5b5050505080600660003373ffffffffffffffffffffffffffffffffffffffff1673ffffffffffffffffffffffffffffffffffffffff168152602001908152602001600020600082825461122d9190611a29565b9250508190555080600760008282546112469190611a29565b92505081905550611255610341565b6008819055505050565b60066020528060005260406000206000915090505481565b6001818154811061128757600080fd5b906000526020600020016000915054906101000a900473ffffffffffffffffffffffffffffffffffffffff1681565b60008054906101000a900473ffffffffffffffffffffffffffffffffffffffff1673ffffffffffffffffffffffffffffffffffffffff163373ffffffffffffffffffffffffffffffffffffffff1614611344576040517f08c379a000000000000000000000000000000000000000000000000000000000815260040161133b90611660565b60405180910390fd5b80600560006101000a81548173ffffffffffffffffffffffffffffffffffffffff021916908373ffffffffffffffffffffffffffffffffffffffff16021790555050565b6000819050919050565b61139b81611388565b82525050565b60006020820190506113b66000830184611392565b92915050565b600073ffffffffffffffffffffffffffffffffffffffff82169050919050565b6000819050919050565b60006114016113fc6113f7846113bc565b6113dc565b6113bc565b9050919050565b6000611413826113e6565b9050919050565b600061142582611408565b9050919050565b6114358161141a565b82525050565b6000602082019050611450600083018461142c565b92915050565b600080fd5b6000611466826113bc565b9050919050565b6114768161145b565b811461148157600080fd5b50565b6000813590506114938161146d565b92915050565b6000602082840312156114af576114ae611456565b5b60006114bd84828501611484565b91505092915050565b6114cf81611388565b81146114da57600080fd5b50565b6000813590506114ec816114c6565b92915050565b60006020828403121561150857611507611456565b5b6000611516848285016114dd565b91505092915050565b6115288161145b565b82525050565b6000602082019050611543600083018461151f565b92915050565b600061155482611408565b9050919050565b61156481611549565b82525050565b600060208201905061157f600083018461155b565b92915050565b600061159082611408565b9050919050565b6115a081611585565b82525050565b60006020820190506115bb6000830184611597565b92915050565b6000815190506115d0816114c6565b92915050565b6000602082840312156115ec576115eb611456565b5b60006115fa848285016115c1565b91505092915050565b600082825260208201905092915050565b7f4e6f74206f776e65720000000000000000000000000000000000000000000000600082015250565b600061164a600983611603565b915061165582611614565b602082019050919050565b600060208201905081810360008301526116798161163d565b9050919050565b7f496e76616c696420736861726520616d6f756e74000000000000000000000000600082015250565b60006116b6601483611603565b91506116c182611680565b602082019050919050565b600060208201905081810360008301526116e5816116a9565b9050919050565b7f4e6f7420656e6f75676820736861726573000000000000000000000000000000600082015250565b6000611722601183611603565b915061172d826116ec565b602082019050919050565b6000602082019050818103600083015261175181611715565b9050919050565b7f4e487b7100000000000000000000000000000000000000000000000000000000600052601160045260246000fd5b600061179282611388565b915061179d83611388565b92508282026117ab81611388565b915082820484148315176117c2576117c1611758565b5b5092915050565b7f4e487b7100000000000000000000000000000000000000000000000000000000600052601260045260246000fd5b600061180382611388565b915061180e83611388565b92508261181e5761181d6117c9565b5b828204905092915050565b600061183482611388565b915061183f83611388565b925082820390508181111561185757611856611758565b5b92915050565b6000604082019050611872600083018561151f565b61187f6020830184611392565b9392505050565b60008115159050919050565b61189b81611886565b81146118a657600080fd5b50565b6000815190506118b881611892565b92915050565b6000602082840312156118d4576118d3611456565b5b60006118e2848285016118a9565b91505092915050565b7f4e487b7100000000000000000000000000000000000000000000000000000000600052603260045260246000fd5b7f466565207472616e73666572206661696c656400000000000000000000000000600082015250565b6000611950601383611603565b915061195b8261191a565b602082019050919050565b6000602082019050818103600083015261197f81611943565b9050919050565b7f496e76616c696420616d6f756e74000000000000000000000000000000000000600082015250565b60006119bc600e83611603565b91506119c782611986565b602082019050919050565b600060208201905081810360008301526119eb816119af565b9050919050565b6000606082019050611a07600083018661151f565b611a14602083018561151f565b611a216040830184611392565b949350505050565b6000611a3482611388565b9150611a3f83611388565b9250828201905080821115611a5757611a56611758565b5b9291505056fea2646970667358221220c8d447e0eece5ac702f81dbcfc3f33ff297a511f4976d152416e415d565d7dab64736f6c634300081c0033",
  "linkReferences": {},
  "deployedLinkReferences": {}
}