{
  "_format": "hh-sol-artifact-1",
  "contractName": "OracleMock",
  "sourceName": "contracts/OracleMock.sol",
  "abi": [
    {
      "inputs": [
        {
          "internalType": "address[]",
          "name": "_strategies",
          "type": "address[]"
        }
      ],
      "stateMutability": "nonpayable",
      "type": "constructor"
    },
    {
      "inputs": [
        {
          "internalType": "address",
          "name": "strategy",
          "type": "address"
        }
      ],
      "name": "addStrategy",
      "outputs": [],
      "stateMutability": "nonpayable",
      "type": "function"
    },
    {
      "inputs": [
        {
          "internalType": "address",
          "name": "strategy",
          "type": "address"
        }
      ],
      "name": "getAPY",
      "outputs": [
        {
          "internalType": "uint256",
          "name": "",
          "type": "uint256"
        }
      ],
      "stateMutability": "view",
      "type": "function"
    },
    {
      "inputs": [
        {
          "internalType": "address",
          "name": "",
          "type": "address"
        }
      ],
      "name": "isStrategy",
      "outputs": [
        {
          "internalType": "bool",
          "name": "",
          "type": "bool"
        }
      ],
      "stateMutability": "view",
      "type": "function"
    },
    {
      "inputs": [
        {
          "internalType": "address",
          "name": "strategy",
          "type": "address"
        }
      ],
      "name": "removeStrategy",
      "outputs": [],
      "stateMutability": "nonpayable",
      "type": "function"
    }
  ],
  "bytecode": "0x608060405234801561001057600080fd5b506040516107db3803806107db8339818101604052810190610032919061028e565b60005b81518110156100bc576001600080848481518110610056576100556102d7565b5b602002602001015173ffffffffffffffffffffffffffffffffffffffff1673ffffffffffffffffffffffffffffffffffffffff16815260200190815260200160002060006101000a81548160ff0219169083151502179055508080600101915050610035565b5050610306565b6000604051905090565b600080fd5b600080fd5b600080fd5b6000601f19601f8301169050919050565b7f4e487b7100000000000000000000000000000000000000000000000000000000600052604160045260246000fd5b610125826100dc565b810181811067ffffffffffffffff82111715610144576101436100ed565b5b80604052505050565b60006101576100c3565b9050610163828261011c565b919050565b600067ffffffffffffffff821115610183576101826100ed565b5b602082029050602081019050919050565b600080fd5b600073ffffffffffffffffffffffffffffffffffffffff82169050919050565b60006101c482610199565b9050919050565b6101d4816101b9565b81146101df57600080fd5b50565b6000815190506101f1816101cb565b92915050565b600061020a61020584610168565b61014d565b9050808382526020820190506020840283018581111561022d5761022c610194565b5b835b81811015610256578061024288826101e2565b84526020840193505060208101905061022f565b5050509392505050565b600082601f830112610275576102746100d7565b5b81516102858482602086016101f7565b91505092915050565b6000602082840312156102a4576102a36100cd565b5b600082015167ffffffffffffffff8111156102c2576102c16100d2565b5b6102ce84828501610260565b91505092915050565b7f4e487b7100000000000000000000000000000000000000000000000000000000600052603260045260246000fd5b6104c6806103156000396000f3fe608060405234801561001057600080fd5b506004361061004c5760003560e01c8063175188e814610051578063223e54791461006d5780632e8ebaae14610089578063c4f9870b146100b9575b600080fd5b61006b60048036038101906100669190610323565b6100e9565b005b61008760048036038101906100829190610323565b610143565b005b6100a3600480360381019061009e9190610323565b61019d565b6040516100b0919061036b565b60405180910390f35b6100d360048036038101906100ce9190610323565b6101bd565b6040516100e0919061039f565b60405180910390f35b60008060008373ffffffffffffffffffffffffffffffffffffffff1673ffffffffffffffffffffffffffffffffffffffff16815260200190815260200160002060006101000a81548160ff02191690831515021790555050565b60016000808373ffffffffffffffffffffffffffffffffffffffff1673ffffffffffffffffffffffffffffffffffffffff16815260200190815260200160002060006101000a81548160ff02191690831515021790555050565b60006020528060005260406000206000915054906101000a900460ff1681565b60008060008373ffffffffffffffffffffffffffffffffffffffff1673ffffffffffffffffffffffffffffffffffffffff16815260200190815260200160002060009054906101000a900460ff1661024a576040517f08c379a000000000000000000000000000000000000000000000000000000000815260040161024190610417565b60405180910390fd5b8173ffffffffffffffffffffffffffffffffffffffff1663962ca4966040518163ffffffff1660e01b8152600401602060405180830381865afa158015610295573d6000803e3d6000fd5b505050506040513d601f19601f820116820180604052508101906102b99190610463565b9050919050565b600080fd5b600073ffffffffffffffffffffffffffffffffffffffff82169050919050565b60006102f0826102c5565b9050919050565b610300816102e5565b811461030b57600080fd5b50565b60008135905061031d816102f7565b92915050565b600060208284031215610339576103386102c0565b5b60006103478482850161030e565b91505092915050565b60008115159050919050565b61036581610350565b82525050565b6000602082019050610380600083018461035c565b92915050565b6000819050919050565b61039981610386565b82525050565b60006020820190506103b46000830184610390565b92915050565b600082825260208201905092915050565b7f556e6b6e6f776e20737472617465677900000000000000000000000000000000600082015250565b60006104016010836103ba565b915061040c826103cb565b602082019050919050565b60006020820190508181036000830152610430816103f4565b9050919050565b61044081610386565b811461044b57600080fd5b50565b60008151905061045d81610437565b92915050565b600060208284031215610479576104786102c0565b5b60006104878482850161044e565b9150509291505056fea2646970667358221220a601f418c203c1e30b9df15f57c83f35bff3c9a162b5d1dc4dea4e4687227ad764736f6c634300081c0033",
  "linkReferences": {},
  "deployedLinkReferences": {}
}