{
  "_format": "hh-sol-artifact-1",
  "contractName": "FeesManager",
  "sourceName": "contracts/FeesManager.sol",
  "abi": [
    {
      "inputs": [
        {
          "internalType": "uint256",
          "name": "_performanceFee",
          "type": "uint256"
        }
      ],
      "stateMutability": "nonpayable",
      "type": "constructor"
    },
    {
      "anonymous": false,
      "inputs": [
        {
          "indexed": false,
          "internalType": "uint256",
          "name": "profit",
          "type": "uint256"
        },
        {
          "indexed": false,
          "internalType": "uint256",
          "name": "fee",
          "type": "uint256"
        }
      ],
      "name": "FeeCollected",
      "type": "event"
    },
    {
      "anonymous": false,
      "inputs": [
        {
          "indexed": false,
          "internalType": "uint256",
          "name": "newFee",
          "type": "uint256"
        }
      ],
      "name": "FeeUpdated",
      "type": "event"
    },
    {
      "inputs": [
        {
          "internalType": "uint256",
          "name": "profit",
          "type": "uint256"
        }
      ],
      "name": "collectFee",
      "outputs": [
        {
          "internalType": "uint256",
          "name": "",
          "type": "uint256"
        }
      ],
      "stateMutability": "nonpayable",
      "type": "function"
    },
    {
      "inputs": [],
      "name": "owner",
      "outputs": [
        {
          "internalType": "address",
          "name": "",
          "type": "address"
        }
      ],
      "stateMutability": "view",
      "type": "function"
    },
    {
      "inputs": [],
      "name": "performanceFee",
      "outputs": [
        {
          "internalType": "uint256",
          "name": "",
          "type": "uint256"
        }
      ],
      "stateMutability": "view",
      "type": "function"
    },
    {
      "inputs": [
        {
          "internalType": "uint256",
          "name": "newFee",
          "type": "uint256"
        }
      ],
      "name": "setPerformanceFee",
      "outputs": [],
      "stateMutability": "nonpayable",
      "type": "function"
    }
  ],
  "bytecode": "0x608060405234801561001057600080fd5b5060405161074a38038061074a833981810160405281019061003291906100ff565b611388811115610077576040517f08c379a000000000000000000000000000000000000000000000000000000000815260040161006e90610189565b60405180910390fd5b336000806101000a81548173ffffffffffffffffffffffffffffffffffffffff021916908373ffffffffffffffffffffffffffffffffffffffff16021790555080600181905550506101a9565b600080fd5b6000819050919050565b6100dc816100c9565b81146100e757600080fd5b50565b6000815190506100f9816100d3565b92915050565b600060208284031215610115576101146100c4565b5b6000610123848285016100ea565b91505092915050565b600082825260208201905092915050565b7f546f6f2068696768000000000000000000000000000000000000000000000000600082015250565b600061017360088361012c565b915061017e8261013d565b602082019050919050565b600060208201905081810360008301526101a281610166565b9050919050565b610592806101b86000396000f3fe608060405234801561001057600080fd5b506004361061004c5760003560e01c806370897b2314610051578063877887821461006d5780638da5cb5b1461008b578063a969ff0a146100a9575b600080fd5b61006b600480360381019061006691906102c6565b6100d9565b005b6100756101ed565b6040516100829190610302565b60405180910390f35b6100936101f3565b6040516100a0919061035e565b60405180910390f35b6100c360048036038101906100be91906102c6565b610217565b6040516100d09190610302565b60405180910390f35b60008054906101000a900473ffffffffffffffffffffffffffffffffffffffff1673ffffffffffffffffffffffffffffffffffffffff163373ffffffffffffffffffffffffffffffffffffffff1614610167576040517f08c379a000000000000000000000000000000000000000000000000000000000815260040161015e906103d6565b60405180910390fd5b6113888111156101ac576040517f08c379a00000000000000000000000000000000000000000000000000000000081526004016101a390610442565b60405180910390fd5b806001819055507f8c4d35e54a3f2ef1134138fd8ea3daee6a3c89e10d2665996babdf70261e2c76816040516101e29190610302565b60405180910390a150565b60015481565b60008054906101000a900473ffffffffffffffffffffffffffffffffffffffff1681565b60008082036102295760009050610286565b60006127106001548461023c9190610491565b6102469190610502565b90507faf7c505ee772ec188af7067e1f73db08ab028e3d564273442b907742b9c41fa08382604051610279929190610533565b60405180910390a1809150505b919050565b600080fd5b6000819050919050565b6102a381610290565b81146102ae57600080fd5b50565b6000813590506102c08161029a565b92915050565b6000602082840312156102dc576102db61028b565b5b60006102ea848285016102b1565b91505092915050565b6102fc81610290565b82525050565b600060208201905061031760008301846102f3565b92915050565b600073ffffffffffffffffffffffffffffffffffffffff82169050919050565b60006103488261031d565b9050919050565b6103588161033d565b82525050565b6000602082019050610373600083018461034f565b92915050565b600082825260208201905092915050565b7f4e6f74206f776e65720000000000000000000000000000000000000000000000600082015250565b60006103c0600983610379565b91506103cb8261038a565b602082019050919050565b600060208201905081810360008301526103ef816103b3565b9050919050565b7f546f6f2068696768000000000000000000000000000000000000000000000000600082015250565b600061042c600883610379565b9150610437826103f6565b602082019050919050565b6000602082019050818103600083015261045b8161041f565b9050919050565b7f4e487b7100000000000000000000000000000000000000000000000000000000600052601160045260246000fd5b600061049c82610290565b91506104a783610290565b92508282026104b581610290565b915082820484148315176104cc576104cb610462565b5b5092915050565b7f4e487b7100000000000000000000000000000000000000000000000000000000600052601260045260246000fd5b600061050d82610290565b915061051883610290565b925082610528576105276104d3565b5b828204905092915050565b600060408201905061054860008301856102f3565b61055560208301846102f3565b939250505056fea26469706673582212206b29440ca89e7f0790349db7a543f49e346573c25163024f165bd92efba6262664736f6c634300081c0033",
  "linkReferences": {},
  "deployedLinkReferences": {}
}